:020000040000FA
:1000000080B3002011F10100852F0400FDF00100F4
:10001000FDF00100FDF00100FDF001000000000016
:1000200000000000000000000000000031F30100AB
:10003000FDF0010000000000C5F20100FDF001002C
:1000400035F60100C17E040035F6010035F60100E9
:1000500035F6010035F6010035F6010035F60100F0
:10006000917E040035F6010035F60100AB7E0400F8
:1000700035F6010035F6010035F6010035F60100D0
:1000800035F6010035F6010035F6010035F60100C0
:1000900035F6010035F6010035F6010035F60100B0
:1000A00035F6010035F6010035F6010035F60100A0
:1000B00035F6010035F6010035F6010035F6010090
:1000C00035F6010035F6010035F6010035F6010080
:1000D00035F6010035F6010035F6010035F6010070
:1000E00035F6010035F6010035F6010035F6010060
:1000F00035F6010035F6010035F6010035F6010050
:10010000294B10B50022294CC3F84825C3F84425D3
:10011000C3F84025C3F84C2510F07CF910F0E0FF3F
:1001200094F86D3023B114F0F9FE78BB84F86D00BB
:10013000002014F0FFFE70BBE26C1D491A4B42F028
:1001400044629FED177B42F40032C1F80825194A3A
:10015000C3F848050221E064C3F844052076C3F8DB
:10016000400584ED107BC3F84C05C3F84801C3F883
:100170004401C3F84001C3F84C01C2F88010BFF33A
:100180004F8FBFF36F8FC2F8801110BD40F25D51E9
:100190003E2000F0FFFC4FF4AC613E2000F0FAFC82
:1001A000000000000000000000800040E832002055
:1001B00000F0014000E100E02DE9F00791E8F807C8
:1001C000B2E802105B1854EB0C04B2E802104D4187
:1001D00056EB0C06B2E802104F4158EB0C08B2E89F
:1001E000021059EB01095AEB0C0A80E8F80780412C
:1001F0000130BDE8F00770472DE9F00791E8F807F6
:10020000B2E802105B1A74EB0C04B2E802108D41E4
:1002100076EB0C06B2E802108F4178EB0C08B2E8DE
:10022000021079EB01097AEB0C0A80E8F8078041AB
:100230004042BDE8F00770472DE9F007524290E8D0
:100240007800B1E880071740DB1918EA020854EB80
:10025000080419EA020955EB09051AEA020A56EBE5
:100260000A0678C090E87800B1E8800717407B4123
:1002700018EA020854EB080419EA020955EB0905CB
:100280001AEA020A56EB0A0678C080410130BDE83E
:10029000F00770472DE9F007524290E87800B1E886
:1002A00080071740DB1B18EA020874EB080419EA00
:1002B000020975EB09051AEA020A76EB0A0678C00C
:1002C00090E87800B1E880071740BB4118EA0208BF
:1002D00074EB080419EA020975EB09051AEA020A27
:1002E00076EB0A0678C080414042BDE8F0077047CF
:1002F0002DE9F00152424FF0040890E8300091E8F7
:10030000C000A31B1340E41AF618EB1B1340ED1AB0
:10031000FF1830C0C0C1B8F10108EED1BDE8F0014E
:10032000704700BF00B592EC080AB1E8805707EEAD
:10033000101A53EC102A56EC114AA7FB0251A8FBE5
:10034000020BE7FB6310E9FB62B041EC145AA8FB17
:100350000351EAFB6201E7FB64B5E7FB6605E8FBD6
:10036000661505EE10BAA9FB03B6EAFB6316ECFBB3
:100370006356E8FB640BE9FB641BEAFB645BECFB84
:10038000646B05EE900AACFB023012EE104AEEFBF5
:100390006250E9FB6460EAFB64B0E7FB6431E8FBB0
:1003A000645112EE904AE8FB6461E9FB64B1EAFB38
:1003B000640106EE103AA7FB043213EE104AE7FB85
:1003C0006462E8FB64B2E9FB6402EAFB641211EECA
:1003D000904AE9FB6453EAFB646313EE904AE7FB3F
:1003E00064B3E8FB6403E9FB6413EAFB642306EEF1
:1003F000905A17EE109A99E8000610EE108AA9FBA1
:100400000854EAFB68B412EE108AECFB6804EEFBB9
:100410006814E9FB6824EAFB683410EE908AEEFB6E
:100420006865E9FB68B5EAFB680512EE908AECFBAB
:100430006815EEFB6825E9FB6835EAFB684507EEC1
:10044000106A11EE108AAEFB0876E9FB6806EAFB3B
:10045000681613EE108AECFB6826EEFB6836E9FBA3
:100460006846EAFB685611EE908AECFB68B7EEFB33
:100470006807E9FB6817EAFB682713EE908AECFB34
:100480006837EEFB6847E9FB6857EAFB686700BD21
:100490002DE9F04F07EE900AFFF744FF17EE908A20
:1004A00007EE90BAA8EC084A88E8FF00BDE8F08F94
:1004B00000B591E89857A3FB0352A3FB0401E3FBAB
:1004C0006420E3FB671042EC145AA3FB0752E3FBE2
:1004D0006802E4FB6415E3FB6805E3FB6925A4FB04
:1004E00007B6E3FB6926E3FB6A56E4FB670BE4FB14
:1004F000682BE3FB6A5BE3FB6C6B40EC151AA4FB17
:100500000810E4FB6950E3FB6C60E3FB6EB0E7FBB3
:100510006721E4FB6951E4FB6A61E3FB6EB1E4FB34
:100520006E0106EE102AA7FB0832E4FB6A62E4FBC8
:100530006CB2E4FB6E02E7FB6E12E7FB6853E7FB6D
:100540006963E4FB6CB3E7FB6C03E7FB6E13E8FB4A
:100550006E2306EE905AA7FB0954E7FB6AB4E7FB4B
:100560006C04E8FB6C14E8FB6E24E9FB6E34E8FBDA
:100570006865E7FB6AB5E8FB6A05E8FB6C15E9FB13
:100580006C25E9FB6E35EAFB6E4507EE106AA8FBA9
:100590000976E8FB6A06E9FB6A16E9FB6C26EAFBCA
:1005A0006C36EAFB6E46ECFB6E56E8FB69B7E9FB7E
:1005B0006907E9FB6A17EAFB6A27EAFB6C37ECFB81
:1005C0006C47ECFB6E57EEFB6E6700BD2DE9F04FFC
:1005D00007EE900AFFF76CFF17EE908A07EE90BACD
:1005E000A8EC084A88E8FF00BDE8F08F30B44FF06F
:1005F000000310F8014B11F8015B013A84EA05048D
:1006000043EA0403F5D1A3F101034FEAD37030BCF0
:10061000704700BF4FF0000310F8012B013943EA87
:100620000203F9D1A3F101034FEAD370704700BF71
:1006300030B411F8014B12F8015B6C4000F8014B2B
:10064000013BF6D130BC70472DE9F00791E8F8077F
:10065000B2E802105B1854EB0C04B2E802104D41F2
:1006600056EB0C06B2E802104F4158EB0C08B2E80A
:10067000021059EB01095AEB0C0A8941B3F1FF331F
:1006800074F1FF3475F1FF3576F1000677F100075C
:1006900078F1000879F101097AF1FF3A51F100018E
:1006A0005B184C414D4156F1000657F1000758F1D7
:1006B000000859EBD1795AEB010A80E8F807BDE848
:1006C000F00770472DE9F00791E8F807B2E802104B
:1006D0005B1A74EB0C04B2E802108D4176EB0C0649
:1006E000B2E802108F4178EB0C08B2E8021079EB07
:1006F00001097AEB0C0A89415B184C414D4156F1D6
:10070000000657F1000758F1000859EBD1795AEB70
:10071000010A80E8F807BDE8F007704718EB040805
:1007200059EB05095AEB060A5BEB070B5FF0000C6F
:100730004CF1000C18EB050859EB06095AEB070AB7
:100740005BEB070B50EB0C005FF0000C51EB0C0166
:1007500052EB0C0263414CF1000CB8EB070879F145
:1007600000097AF1000A7BEB040BA841B141A241D8
:10077000B3416CF1000CBBEB050BB041B941AA4190
:10078000BB416CF1000C4CF001068CF0020718EB39
:10079000060859EB6C095AEB6C0A7BEB6C0B70EB9F
:1007A0006C0471EB6C0572EB670653EB6C076CEB3A
:1007B0006C0C18EB0C0059EB0C015AEB0C025BF1C2
:1007C000000354F1000455F1000556EBDC7657EBBD
:1007D0000C0770472DE9F04F07EE900AFFF7A2FDD6
:1007E00059EC168A17EE10AAFFF798FF59EC148AF5
:1007F0005BEC15AAFFF792FF17EE908A88E8FF00DE
:10080000BDE8F08F2DE9F04F07EE900AFFF750FE9C
:1008100059EC168A17EE10AAFFF780FF59EC148ADC
:100820005BEC15AAFFF77AFF17EE908A88E8FF00C5
:10083000BDE8F08F074B1B78002B4FF0000383605F
:100840000360054B436014BF02220122FF23C271E3
:10085000037270478027002048010800064B074AB2
:10086000DB7802604FF442728280C3710822002359
:1008700082710372704700BF80270020439F0100F0
:10088000064B074A1B7902604FF4B8728280C3712D
:100890000822FF2382710372704700BF8027002067
:1008A0008B9A01002DE9F743C41D002824F00704AA
:1008B000064614BF2046002000F0FCFC071E04DAA8
:1008C0006FF00B0003B0BDE8F0830EB9FC42F7D423
:1008D000354D297AE879AB7A6A7A0331033015F01D
:1008E000BEFF0028ECDBA978EB783C440334002EF3
:1008F000194424F0030400FB01F114BF204600203A
:1009000000F06EFE20440EB90028D9DB2B79044696
:10091000B3B1697C19446B791944FF29D0DC0330E9
:10092000002E20F0030714BF38460020AA89C9B260
:1009300000F0C6FE041EC3DB3C440EB9002CBFDB36
:10094000012000F0ADFCC8B1E97AB9B195F82830C2
:100950000734002B15BF402325234FF48172282232
:1009600024F00707002E14BF3846002006F034F8A4
:10097000041EA5DB3C440EB9002CA1DBAB7BE3B12C
:100980002B799BB10734002E24F0070714BF38469B
:100990000020A97B0BF0F2F9041E91DB3C4466B900
:1009A000002C0ADA8CE700BF80270020012000F02D
:1009B00077FC10B1EB7A002BE4D1734B1B6893B139
:1009C000A97981B10334002E24F0030714BF3846FF
:1009D0000020EA7B9847041EFFF672AF3C4416B92C
:1009E000002CFFF66DAF694B1B688BB1297C79B188
:1009F0000334002E24F0030714BF38460020984724
:100A0000041EFFF65DAF3C4416B9002CFFF658AF4C
:100A10005F4BD3F80080B8F1000F15D0697C99B115
:100A20000334002E2B7D009324F0030714BF3846B7
:100A30000020EB7CAA7CC047041EFFF641AF3C447B
:100A400016B9002CFFF63CAF072000F029FC98B146
:100A5000A97989B10334002E24F0030714BF384666
:100A60000020AA7D00F01AFF041EFFF629AF3C44C7
:100A700016B9002CFFF624AF95F82100B6FA86F8D7
:100A80004FEA5818A0B1EB7E297EE71C27F0070734
:100A9000194447F0040743463A46C9B200F040FF04
:100AA000041EFFF60DAF3C4416B9002CFFF608AF4C
:100AB00095F82210002957D00734002E24F007079C
:100AC00014BF38460020AA8C15F0DEFE041EFFF687
:100AD000F7AE3C4416B9002CFFF6F2AE1EB1A98C5D
:100AE000384610F0E3FA297F00293FD095F82030EE
:100AF000002B3BD0EA8B0734002E02F1240224F0B5
:100B0000070914BF4846002092B215F0BDFE071E2B
:100B1000FFF6D6AE4F4416B9002FFFF6D1AEAB7E2E
:100B2000297E95F82000033727F00707194447F07E
:100B3000040743463A46C9B200F0E4FE041EFFF63D
:100B4000BFAE3C4416B9002CFFF6BAAE36B1EA8B04
:100B5000297F083292B2484610F0AEFAEB6A5BB1D8
:100B600076B1EC620020ADE60F46B7E7002EF5D077
:100B7000002211461046EFE7002EF3D12046A1E6F1
:100B80002834FBD59CE600BF1C050020240500206E
:100B9000200500201FB572B6184B1D6BE5B9BFF3D9
:100BA0004F8F1749174BCA6802F4E0621343CB60BA
:100BB000BFF34F8F00BFFDE7B2FBF6F2DCB20133AB
:100BC000002AF9D104F110036B4403F80C2C0A221B
:100BD00034B901A8A847E2E7024600230A26EDE758
:100BE000631E04AEDCB256FA83F3B0FBF2F602FBEE
:100BF0001600303003F80C0C3046E9E7802700205F
:100C000000ED00E00400FA0513B5114CA37A8DF84D
:100C10000130637A8DF80030237AADF804306846ED
:100C2000E379ADF8023009F06DF918B1D92103204C
:100C3000FFF7B0FF207D09F0C1F908B1DC21F6E72C
:100C4000E07C09F0B5F908B1DD21F0E702B010BD94
:100C50008027002038B5054600283ED013F0D8FC88
:100C600010B94FF0FF3038BD19F0B7FAB0F5FA7F80
:100C7000F7D81C4C1C482563002500F089FA262271
:100C80002946A01C84F83450257084F82850E56269
:100C900014F0D2F81B22E27140F21B3240F2011331
:100CA000228140F202326380628101231F2223717C
:100CB000A281A3754FF40272F723E281E38344F625
:100CC0000112FB236282A384EFF3108472B600F05A
:100CD00037FE2CB962B62046C5E76FF01500C2E7B3
:100CE0002846C0E780270020090C000038B51446CC
:100CF000002840F0B3805B4D95F83430032B00F0B2
:100D0000AA80B1B112B96FF0150038BD01391429AC
:100D100000F2A480DFE801F00B1C1F2F59627F3521
:100D20006568793B414F54858896999C8E0013786D
:100D3000AB700020FFF7B6FD0028B7BF01230223E8
:100D400085F834306FF00B00A8BF85F83430DCE74D
:100D50001378EB70EDE79378002BD4D0D378002B89
:100D6000D1D013781A2BCED953781A2BCBD913683C
:100D7000C5F80730DDE713786A799342C3D32B7146
:100D8000D7E713782A799342BDD86B71D1E71378EE
:100D90002A799342B7D86B74CBE71378002BB2D083
:100DA0005378013BDBB2F82BADD813886B822E4B06
:100DB00092789A70BDE7107868750EF02FFAB8E750
:100DC0001378002B9FD0AB75B3E7012000F068FAD1
:100DD000237808B1012B96D9EB72AAE71388AB816F
:100DE000A7E71378AB71A4E7072000F059FA10B910
:100DF0002378012B87D9072000F052FA10B123780D
:100E0000002B80D02378EB7393E71378082B3FF601
:100E10007AAF2B748DE71388FF2B3FF674AFAB735B
:100E200087E71378EB7584E713780E2B3FF66BAFEB
:100E30002B767EE723680D4AEB6163685360238954
:100E4000138176E713786B7673E71378EB7670E7A8
:100E50001378AB766DE74FF0FF3056E76FF02C005C
:100E600053E700BF80270020922700209C27002006
:100E7000F8B50D46064630B329B311F0070422D168
:100E8000124F97F83430012B02D16FF00B00F8BDF0
:100E9000032B02D14FF0FF30F9E700F0B5F800283E
:100EA000F8D02846FFF7FEFC0028EEDB19F003F926
:100EB0003046F96A09F028F9FFF7A6FE032387F800
:100EC00034302046E3E76FF01500E0E7802700208C
:100ED00010B5074C94F83430032B03D109F030F9E6
:100EE0000AF07EF815F016FE002084F8340010BDDC
:100EF0008027002050B1074B03F1140253F8041B64
:100F000040F8041B9342F9D1002070476FF01500A0
:100F1000704700BF811F050010B5074B93F83440A0
:100F20003CB909F0A7F80320044900F0B1F92046C4
:100F300010BD4FF0FF30FBE7802700208108000044
:100F400010B5074B93F834403CB909F0A7F80220DC
:100F5000044900F09DF9204610BD4FF0FF30FBE73B
:100F6000802700205D08000038B5094D95F8344011
:100F700054B909F0B5F80120064900F089F90123B8
:100F800085F82830204638BD4FF0FF30FBE700BF22
:100F9000802700203508000010B5054B93F8344039
:100FA0001CB909F019F8204610BD4FF0FF30FBE7DF
:100FB0008027002010B5054B93F834401CB916F07B
:100FC00086FD204610BD4FF0FF30FBE78027002054
:100FD00010B5054B93F834401CB916F07BFD204644
:100FE00010BD4FF0FF30FBE780270020024B026866
:100FF0001A600020704700BFB8270020014B1B6813
:10100000184700BFB8270020024B1868003818BFE7
:1010100001207047B8270020F7B52E4E0446071D63
:101020002C48376009F0F4FF0228054606D129490B
:10103000204614F088FD284603B0F0BD042842D1B4
:101040003378092B0AD0252B1ED03146204614F0C8
:10105000E1FDB0F5817F2DD3722112E005213E2004
:1010600014F044FD0028F0D1F378327901A943EA65
:1010700002236846ADF8003015F0C1F90028CFD042
:1010800053210820FFF786FD1A213E2014F02EFD83
:101090000028DAD17368C3F30F23ADF80430694632
:1010A000112301A88DF8063015F0D1F90028B7D02A
:1010B0006521E6E70028B3D0A178207814F016FD6A
:1010C0000028B8D1ACE70828B5D10249204614F071
:1010D00069FDB0E7BC270020074B4FF0FF3141F618
:1010E000FF72C3E9001205490022C1E900221F2155
:1010F000C3E90212704700BFC0040020C0280020CE
:101100003F280CD801380B4BC0F3421200F01F00EF
:1011100053F8223023FA00F000F001007047FF2856
:1011200006D04038C0F34212034B00F01F00EFE737
:1011300001207047C0040020C02800200146074B52
:10114000006849681A4603C240F48C221A6041F0D4
:10115000107242F4FF625A60704700BFC004002062
:101160000246024B0068516803C37047C804002060
:101170000138064BC0F3421203EB820300F01F005C
:101180009B6823FA00F000F001007047C0040020C3
:10119000014B1860704700BFC828002007B5FFF753
:1011A0009BFF15F042FF044B1B6813B10190984759
:1011B000019803B05DF804FBC82800200B88028862
:1011C000F0B5C3F30E049EB204F11403C57CC35AF8
:1011D00002352A442B4497B213FA82F3013B42882A
:1011E000B3FBF7F313FB07439BB29A42044A93BF46
:1011F00022EA0603324013439BB20B80F0BD00BFCE
:101200000080FFFF08B54B1E062B04D84FF4D171A8
:101210001520FFF7BFFC0A4B994202D940F2A311F7
:10122000F6E719B900B10160084608BD28B10368A6
:101230000022C3E901211A1D1A600431F4E700BF3E
:10124000FAFFFF7F10B5114B00EB41041A78638958
:10125000B3FBF2F303FB0223013A1A44B2F5706FB9
:10126000027928BF00231A448378B2FBF3F01944B3
:1012700003FB1020091AB1FBF3F003FB1013134416
:101280006FEA43436FEA5343638110BDCC280020CB
:10129000024B03EB80004160704700BFCC28002068
:1012A000034B03EB80004068003818BF01207047F3
:1012B000CC2800202DE9F04F10F0070A85B0054634
:1012C00004D040F261111720FFF764FC554F07F17D
:1012D0004006B1460446B0464FF0010B57F8043BB8
:1012E0008DF80BA03BB101A898479DF80A30082B58
:1012F00001D9E821E7E79DF80B1081BB05B131600A
:10130000B94506F10406E9D12DB3DFF81CE100234D
:101310008EF800301E460F2258F82200013A60B1C4
:1013200090F804A08178BAF1FF0F66D14FF0000762
:101330008E4207713CBFCEB20123511CECD10BB1E0
:101340008EF800600F2640F6FF6A58F82670002FCE
:1013500065D1013EF9D2601B05B0BDE8F08F9DF864
:101360000AC0BCF1020FE64601F1050238BF4FF09A
:10137000020E0EF1FF3004EB42040444CEF10000F3
:101380002040BDF808406444013CCCF1000C04EA64
:101390000C04B4F5803F4FEA420301D3F82192E7F1
:1013A00075B1C31A336099701C8083F803B09DF83F
:1013B0000C201A71019A1A814FEA124CA3F806C048
:1013C00004FB01049CE758F82C90B9F1000F06D0FB
:1013D00099F804B0D34504BF99F802904F440CF13A
:1013E000FF3CBCF1000FEEDA3944FF29A0D90BB164
:1013F0008EF8006040F2271165E794460027F0E779
:1014000007EB41033846A3F80AA0FFF71BFF09F1D9
:101410000109BB785FFA89F18B42F1D899E74FF067
:101420000009F6E7D0280020CC280020034B03EB6E
:101430008000406C00B18078704700BFCC2800204D
:10144000F8B54FF6FF730380184B03EB8101054697
:10145000486CB8B186780379B3FBF6F206FB123319
:10146000DBB219460A1D00EB4202B2F90270548841
:10147000002F09DB0131B1FBF6F206FB1211C9B2F4
:101480008B42EFD10020F8BDFF29FBD0C4F30E033F
:10149000C4782B8024B94FF4D5711720FFF77AFB5D
:1014A0005380BDE8F84015F0B9B900BFCC28002042
:1014B0001D4B03EB810170B54C6C054644B303042E
:1014C00004D54FF4DC711720FFF764FB014620467A
:1014D00015F086F9FF28014604D02046BDE870408B
:1014E00015F09CB9A078B5FBF0F300FB1353DBB209
:1014F00019460A1D04EB4206B6F90260002E09DB0C
:101500000131B1FBF0F200FB1211C9B28B42F0D1F4
:10151000002070BDFF29FBD08B4204EB42021CBFB0
:101520000023E3705580D8E7CC280020094B03EB5B
:10153000810110B54C6C0146204615F051F9FF2889
:10154000014604D02046BDE8104015F067B90020E0
:1015500010BD00BFCC280020F8B5104B03EB810173
:1015600007464C6C0146204615F03AF9FF2805461F
:1015700011D0E688238953EA064606D00146204664
:1015800015F04CF901463846B04720462946FFF78A
:1015900059FE0020F8BD0520FCE700BFCC28002044
:1015A00038B50E4B827903EB82030446586C08B9B8
:1015B000052038BD8278E1799142F9D24B1CE37164
:1015C00000EB41035D89B3F90A30002BF3DBA58002
:1015D00015F024F920600020EBE700BFCC280020A4
:1015E00070B5044610F003000E4603D04F211820BA
:1015F000FFF7D0FAFFF706FE054624B1034831464F
:101600000460FFF7FFFD284670BD00BF5029002091
:101610002DE9F3471C4C9DF82CA0904622681E46ED
:1016200007469DF828300D461AB961211820FFF7AA
:10163000B1FA1A4609214046019314F057FF524669
:101640001FFA80F90921304614F050FF19FA80F191
:10165000206815F09AF8019B386018B9286002B02C
:10166000BDE8F08700EB09042C6038684146092288
:1016700014F0F5FE286853460922314602B0BDE851
:10168000F04714F0ECBE00BF5029002070B50E46A4
:10169000044614F03EFF0546304614F03AFF044B72
:1016A0002A1821461868BDE8704015F092B800BFAE
:1016B00050290020014B186815F05BB85029002014
:1016C0001F2AF8B504460ED89200033222F0030315
:1016D000B3F5803F2ED2194DB4B1A00711D05F21D0
:1016E0000920FFF757FAFF2A4FEA420304D9FF32D5
:1016F0009A42A8BF1A46E8E77C2BB8BF7C231A465B
:10170000E3E729706C602B8122F0030201EB810377
:101710001204D80001276B68120C0025EEB28E422D
:1017200000D3F8BD14B126181F705E601044013557
:101730002833F3E74FF0FF30F3E700BF54290020D0
:1017400038B5144A147853680021C8B2844203D8CB
:10175000AB210920FFF71EFA18460131057828331E
:10176000002DF2D000218170012412894470446858
:101770008161C161920800F12001051D21F8022B51
:10178000994245F8044B1444F8D100234361037097
:1017900038BD00BF542900200A4B1B89B3F5FF7FD9
:1017A0004FEA930006D25A089B1A9BB2984238BF60
:1017B00018467047B3F5EE6F01D8FF22F4E740F208
:1017C0007263F3E7542900202DE9F8434B788046F3
:1017D0000C4602F0040602F0FB07D3B1DFB12E4B3A
:1017E000D4F804901D89B7BB01236370AD08A761CD
:1017F000E76104F120034A46211D04F1280023F883
:10180000025B984241F8042B2A44F8D1002363611B
:1018100001E0002FE3D0FF23A370002E18BF0226A3
:10182000A3191B7D032B03D1022F1CBF0136F6B277
:10183000A31901221A7506F10C0204EB8606002397
:1018400024F812307268A370C8F80020A8F8043099
:101850004046BDE8F883002114226170A01813F0FF
:10186000EBFAB5F5FF7F0FD26B08ED1AADB209EBBD
:101870000502C4F804902584A2606384C4F80C9027
:10188000A5842261E384C6E7B5F5EE6F4FF0FF0350
:10189000EBD940F27265EAE7542900202DE9F843BC
:1018A00005460C46F7200521914614F01FFE061E42
:1018B00022DB1DB914FB06F0BDE8F88315F0030721
:1018C00003D098211920FFF765F9DFF83480C8F8B4
:1018D0001050A8F81460A5B2BBB29D42EAD9B8F87E
:1018E00014C0D8F810004B4607FB0C000522F72166
:1018F00014F0B5FD0137EFE74FF0FF30DCE700BF34
:101900006829002007B5CDE900230B4603490246AC
:10191000081D15F0D9F803B05DF804FB80290020FC
:1019200013B5064CCDE900230B46024604F108012D
:1019300004F10C0015F0C8F802B010BD8029002099
:10194000134B012200214FF0FF309A60C3F80012C0
:10195000C3F80803C3F80015C3F804259A60C3F858
:101960000803C3F80015C3F804250A490A4A03F519
:1019700080334FF40040C3F80825C1F88000BFF35E
:101980004F8FBFF36F8FC1F88001C3F808257047F0
:1019900000F0004000E100E00000F63F8C463023FC
:1019A00000B50CF8033B054B8E4607CBCEF8030081
:1019B000CCF80410CCF808205DF804FB9C2900202A
:1019C00010B5154C0EF026FD0DF0CCFD636A608C51
:1019D00000219847237E9BB9104B628C93E803004B
:1019E0000AF054FAE36A18880AF07CF9636B94F8F9
:1019F000301094F831009847002384F8383010BD37
:101A000094E8070004F10C0383E80700044904F19B
:101A1000190017F016F9DFE790290020B8290020F7
:101A20009D190000034B93F8383003B97047FFF756
:101A3000C7BF00BF9029002008B540F22B41062007
:101A4000FFF7A8F808B5094B93F83820022A07D108
:101A5000DA7A42F00102DA72BDE80840FFF7B0BF5F
:101A600040F253212720FFF795F800BF902900206E
:101A700070B5364E96F8283005460BB1012825D0B2
:101A800001292AD8336C28469847044628B396F88B
:101A9000303013BB96F8283013B31DBB96F84420A2
:101AA000D106C2F300152DD4F26C316D1278C2F359
:101AB000001201B382F00104BBB1738F9A0715D5F0
:101AC000F36BDC78023C18BF012407E0738F180722
:101AD000D6D5F36BDB78022BD2D10124204670BD22
:101AE000012DDBD00024204670BD738F002BF4D174
:101AF000002DF3D0F6E7B6F854100029DAD0002B09
:101B0000F3D0DAE7F16B0A7802F00302032A02D17C
:101B1000CA78022A18D0B06C14F08EFD48B9F36B65
:101B20001B7803F00303032B06D196F828300546F3
:101B3000BAE796F82830B7E708F03AFC80F00100E1
:101B400096F82830C5B2AFE70025ADE79029002010
:101B500070B5254CE56AE26C95F8A430A26506469E
:101B600094F85C000BB10430C0B295F87D100EB94A
:101B7000FF282FD00EF0F4F895F8A43023B3206E90
:101B80000EF00CFD94F82830216EA06D003B18BFBC
:101B9000012384F88030D5E94223C4E91E230DF0E7
:101BA00085FC46B995F87D30033B012B94BF282076
:101BB00000200EF061FD95F87C1000200EF0C4FDB1
:101BC000022384F8383070BDA06D0EF0E7FC0DF0F4
:101BD000C9FCE6E795F87C208A42CFD00EF0C0F829
:101BE00095F8A430CAE700BF902900202DE9F04104
:101BF0003B4C94F83830E56A012B82B069D15FFA2A
:101C000083F895F8943006460F4673B1638F002130
:101C100043F00403638785F89410636A04209847AF
:101C200094F828300BB185F89680E16B0B7803F0BF
:101C30000303032B2ED04B7843B3022385F89A304D
:101C400095F8A430DBB1E36A94F8282093F87D304E
:101C5000D5E94201013B003ADBB218BF0122032B58
:101C600084F88020C4E91E0194F85C2036D81D4910
:101C70000020CB5C00901C4901200DF09FFB06B9B1
:101C8000E7B902B0BDE8F041FFF79ABE012385F83D
:101C90009A30D5E795F89A3063B9638F43F0020321
:101CA00063870220636A9847E16B0B7803F00303B4
:101CB000032BC0D1032385F89A30C1E73146304663
:101CC000FFF7D6FE0028DCD102B0BDE8F041FFF7F7
:101CD0003FBF40F2A4412720FEF75CFFFFF7ACFEB8
:101CE00090290020A8910400F829002070B5814CAB
:101CF000E56A94F85C3095F8A42082B000218DF854
:101D000005100AB10433DBB295F87C1010B9FF2B33
:101D100000F0AF80FF200EF023F895F89A30032BE7
:101D200000F2E380DFE803F0021C807094F8C23018
:101D3000ADF806307048A5F86C3008F013FB0028A9
:101D400040F09D80A06C0DF105020DF1060114F02C
:101D500008FCE06320B195F8E130002B00F0A7808B
:101D60006648E06395F89B200378D20002F00802F1
:101D700003F0F303134395F89C20920002F0040251
:101D8000134303F0EF0203F00303032B027002D1AD
:101D9000C378022B11D0A06C14F04EFC48B9E06B54
:101DA000027802F00303032B07D008F001FB0028A0
:101DB00076D1E06B027842F01002027095F8A33001
:101DC00013B14378002B41D10EF0E8FB0DF0CAFBB4
:101DD000E66B09F025FA20B1337803F00303032BF7
:101DE00061D095F87D1001200EF0AEFCE36B444A03
:101DF00018889978A4F84400012384F8C4309170BD
:101E000084F8383002B070BD3B4808F0ABFA0028C7
:101E100061D0E06BC3781B2B14D1012105F11000B8
:101E20000DF0D0FFE06B0DE0B5F86C30A06CADF8B4
:101E300006300DF105020DF1060114F092FBE0638E
:101E400000284DD0012384F8C3308BE7206E0EF0BC
:101E5000A5FBD5E9400194F82830B3FA83F3C4E92F
:101E60001E015B09E16B206E84F880300DF01EFBD3
:101E7000AEE795F87D308B427FF44CAF4DE7638F32
:101E8000E16B626A43F480734FF48070638790471C
:101E9000E06B012185F89510C3781B2BD2D1BDE7EB
:101EA000E06B027889E701200FF0A6FF99E79DF823
:101EB000053043B1BDF8061016F06AFE0123E06B51
:101EC00084F8C3304EE703808370E06B012116F085
:101ED00053FDE06BEEE740F2FD212720FEF75AFEAE
:101EE00040F2F3212720FEF755FE40F20B31272068
:101EF000FEF750FE90290020CC290020202A002047
:101F0000D42900202DE9F04FB84C94F83830E66A17
:101F100087B00022022B049240F01282638C884624
:101F200013F04001074606D1636A40209847638C4E
:101F300043F040036384002F5CD096F8A430002B5C
:101F400040F05C81D4F858A09AF8013099B2A4F816
:101F50005410002940F06A81002323659AF800504C
:101F6000638C96F89B10C5F3800243F40073914292
:101F7000638400F0F080D4F82C9099F89A20FAB19C
:101F8000022A00F0B78194F82830002189F89A10CD
:101F900023B199F89630002B40F0A28199F8953042
:101FA000002B40F07F8199F89B30D4F858A0012B8A
:101FB0000CBF0023012389F89B309AF80050638CF2
:101FC00096F89C10C5F3C00243F400639142638409
:101FD0004FF0000900F0C780002509F021F9F0B1A9
:101FE0009AF8003003F00303032B18D101200FF0FF
:101FF00003FF14E096F8A420002A40F0F38043F495
:102000008063638496F87D3094F8CE20033B0132E0
:10201000012B84F8CE2040F2D4800025A94696F802
:10202000A33003B394F82830F069B3FA83F35B0963
:1020300084F8803096F87C30D6E940AB013BDBB2C7
:1020400041F64B52904294BF04200020032BC4E978
:102050001EAB00F27A81664A6649D35C0022009288
:10206000FB220DF0ABF9B8F1000F08D194F8CE10B7
:102070000120FFF7FDFC8046002800F0DF800EF015
:102080009FFB4FF00108002D3BD1B9F1000F09D0A3
:1020900094F82830002B40F09A80B4F809300133CE
:1020A000A4F80930002F4BD0B4F8053000220133DA
:1020B000A4F8053084F8CE204F4809F001FE0498BA
:1020C00030B114F036FBE16A0022027208F0F0FF32
:1020D00035B1E16A00232B720C22284608F0B6FFC6
:1020E000B8F1000F32D1638C1B0607D4636A4146F6
:1020F00080209847638C43F08003638407B0BDE879
:10210000F08FA16D236D4D78002B00F02081B4F885
:1021100054201846033212F019FE0DF10E0205A9E3
:10212000A065D4F8C80014F01AFB059814F001FB60
:10213000294601220546D4F8C80014F0C7FAA4E7DE
:10214000B4F807300133A4F80730B5E7FFF738FCDF
:1021500007B0BDE8F08F96F89C10C5F3C00291421D
:10216000B9467FF439AF05F00305032DD4F82CB040
:102170006AD143F480536384638F012043F00103E9
:10218000514663878BF89400636A9847D4F858A047
:1021900000259BF89C30013B18BF01238BF89C3035
:1021A0009AF80130002B3FF418AFDBF80831013307
:1021B000CBF80831DBF80C3143F10003CBF80C31DC
:1021C0000BE7012000250FF017FEA94627E7B4F81A
:1021D0000530B4F80710B6F898200B4313433FF4CA
:1021E00061AF5AE70DF030FA638C08E790290020C0
:1021F000A8910400F8290020B82900200DF0EAF980
:102200000DF0CCF9D4F858A09AF8013000287FF4EA
:102210009DAE002B61D09AF8002096F89C10C2F376
:10222000C002914277D099B2A4F85410D4F8C800F3
:1022300014F023FAD4F858A020658FE6FFF756FD76
:10224000002D3FF422AF5CE7002DA2D09AF8015098
:10225000002D9ED043F4805363849BF8A4500DF06E
:1022600011FD042894F8CC3006D1002D14BF1B2298
:102270001F22934228BF1346D4F858A09AF8012091
:102280009A424ED8256D002D3FF4A7AE94F8CD307C
:10229000002B53D0636A0021202098470025D4F8F2
:1022A00058A09AE6002589F8955008F06BF80028A8
:1022B00052D0638F43F0080363872946636A08207E
:1022C0009847D9F800310133C9F80031D9F8043101
:1022D00043F10003C9F8043165E6A4F854303BE645
:1022E000638F89F8961043F0100363871020636AA8
:1022F000984753E6A06C04A914F056F988B3D9F8AE
:1023000000310133C9F80031D9F8043143F1000339
:10231000C9F8043137E6012384F83130FFF750FB68
:10232000ECE694F83030012043F0100384F83030AC
:1023300000250FF061FDD4F858A04EE63D4628E791
:102340004FF4A3612720FEF725FCFFF775FB40F251
:1023500095412720FEF71EFC40F225412720FEF77D
:1023600019FC40F20E412720FEF714FC70B50D4B0E
:102370000D4C0E4A1A6094F838301BB1E121272029
:10238000FEF708FC03F0FF0206460D46227609F030
:1023900075FD012104F1900016F0EEFAE664256661
:1023A00070BD00BF2805002090290020A42800004F
:1023B00010B5074A92F8383013B10C24204610BDEE
:1023C00003F0FF04147609F059FD204610BD00BF4C
:1023D00090290020024B012283F8CD20704700BFD6
:1023E00090290020F0B5BF4C87B004AD85E803000C
:1023F00094F838000C9E002840F0BD81002A00F0BF
:10240000BA81002B00F0B781002E00F0B48100F0FB
:10241000FF0184F8CD1084F8301084F8CE1084F8D1
:10242000311084F8C41084F8C3106187618495E882
:102430000300236404F1280383E80300E56A626271
:1024400066630DF01FFD0DF08DF895F980000DF01D
:1024500021FEA86B0EF086F8286A0DF021FE95F893
:10246000B4000DF027FE94F82860EA6941F64B535A
:10247000002E00F0C1809A4200F20B814D200DF039
:10248000E7FB01200DF046FFE36A93F80032742168
:10249000002B40F0088195F87D2001200DF062FFAF
:1024A000914B18680EF064F8D5E90523A264C4F8CE
:1024B000C83095F88B304BB9D5F8843033B1B5F8C6
:1024C000CE10B5F898208A4200F00381D5F8141197
:1024D000D5F81821D5F81C31844ED5F810010FC657
:1024E000D5F82031C4F88130E36AD5F82421C6F844
:1024F0000D2093F89E20A2F12601012940F28B8045
:1025000093F89F10262900F08680213A012A40F294
:102510001081242900F0F08093F87C60032E08BF1E
:10252000042605F144073146384616F04BFC314687
:1025300015F07AFEB5F8502095F87D1003469342C9
:1025400028BF1346384684F8C23016F001FC95F8CF
:102550007D1095F8A470B5F85860042908BF0321D0
:1025600015F062FE0FB9043080B2B04228BF304689
:10257000C6B284F8CC6008F053FE10B12B2E38BFE1
:102580002B2694F8280084F85C6000285DD195F82B
:10259000A330DBB1012384F88030D5E94023C4E9BE
:1025A0001E23EA6941F64B539A4298BF042095F8DE
:1025B0007C30013BDBB2032B00F2E2804C4A00216D
:1025C000D35C0091FB2249490CF0F8FE0120FFF793
:1025D0008DFB0023C4E90033A360D5F88C30298833
:1025E000B5F8980095F8B4206080218022710BB175
:1025F00001221A6007B0F0BD9A4259D84D200DF063
:1026000027FB30460DF086FE95F87C206E210020D9
:102610000DF0A8FE44E794F828209ABB93F84222D4
:1026200093F87C60002A3FF47CAFF31E012B40F24C
:102630008D80D31E012B40F28980012E3FF471AFB3
:10264000012A14BF022601266BE795F8A430ABB12E
:1026500095F87D3095ED427B013BDBB20120032BE9
:1026600084ED1E7B84F8800000F28A802049CB5CD8
:102670000021009132461D490CF0A0FE0120FFF719
:1026800067FAA6E793F8D62293F87C60002ACCD1AB
:1026900047E796200DF0DCFAE36A93F800329D21BB
:1026A000002B3FF4F8AE03910DF0DAFB0399F2E64C
:1026B00096200DF0CDFA95F87C200D4B0D4803EBDC
:1026C0004203998801F5FA71A0FB013189096E3145
:1026D0009DE7B5F888100A440121A5F8CE201960BD
:1026E000F4E600BF9029002028050020F8290020EA
:1026F000A8910400D34D621094F82820002A3FF4DA
:102700000BAF93F84E2193F8751093F87C6002EAB2
:1027100001035A071AD413F0010220D19B077FF559
:1027200000AFF31EDBB2012B10D9012E18BF022619
:10273000F7E62429E0D094F82820002A3FF4ECAEF4
:1027400093F84E2193F87C60500701D50426E8E603
:1027500012F0010309D191077FF5E3AEE1E7033EF3
:10276000012E8CBF16460426DBE6033E012E8CBFED
:102770001E460426D5E640F26F112720FEF70AFA1E
:10278000FFF75AF908B5124B93F8382092B193F835
:10279000282022B993F83830012B14D108BD93F8C2
:1027A0003820022A0AD1DB6AD3F81802BDE80840B3
:1027B0000DF02EBFBDE80840FFF702B940F2352109
:1027C0002720FEF7E7F940F231212720FEF7E2F952
:1027D00090290020FFF7F4B8014B1876704700BF2E
:1027E00090290020014B93F8C400704790290020E5
:1027F000034B93F8C30010B9588CC0F300307047F6
:1028000090290020024B588CC0F3C020704700BFB5
:1028100090290020014B93F8CE00704790290020AA
:102820002DE9F0411E4F8207FE6A82B0044613D4A0
:10283000E3070ED5D6E9423296F89C10013342F1F7
:1028400000020129C6E942320CBF0023012386F8A9
:102850009C3002B0BDE8F0813B6DE3B1B7F8542085
:102860000D46B96D1846033291F8018012F06EFAE8
:102870000DF1020201A9B865D7F8C80013F06FFF87
:10288000019813F056FF012228604146D7F8C8008E
:1028900013F01CFFCCE740F295412720FEF77AF9B0
:1028A00090290020451A0000051F0000ED1B0000C4
:1028B000251A000008B540F2C1310620FEF76AF97A
:1028C0002DE9F843002800F0E0800446072900F2D3
:1028D000D380DFE801F0AB2424A7D11F9ECD0146B1
:1028E000204617F0DCF8D4F84C3100F1DB059D42AE
:1028F00040F2C680E81A322838BF3220032111F096
:1029000001FBC4F84C510646204617F088F9002E0A
:1029100000F09D802046BDE8F84317F081B917F01C
:102920000DF9D4F81C21002305460E4684F84831E1
:1029300084F85131BAB150EA010314D0CA00C3007F
:102940001B1A42EA507262EB0102D4F838115B188C
:10295000D4F83C1142EB0102D4E95601834272EBF8
:102960000103C0F09080022304F5A47784F850316D
:10297000384610F009FD002800F08B8094F868318B
:1029800003F0FF01002B6BD1D4E958026FF0004334
:102990009A4208BFB0F1FF3F13D02046D4E95698C1
:1029A00017F07DF8D4F86031D4F86421B3EB090353
:1029B00000F1DB0062EB08021B1A62F10002002A40
:1029C0004BDB94F81801394610F0D0FD00286AD08E
:1029D000D4E95601D4E94C32834272EB01071FD28D
:1029E00055EA06071CD0C01A61EB020133462A469D
:1029F00012F010F905FB01F100FB0616D4E94C2199
:102A0000A5FB00535519334443EB0103C4E94C5370
:102A100006E090F8180110F089FC002384F840319A
:102A2000BDE8F883BDE8F8430DF0DCBE0BF0C2F85A
:102A3000D4F84C01CB3811F0C1F978B3204617F027
:102A4000BBF800283FF44BAF204617F0E8F8D4E974
:102A50005623C4E94E23BDE8F88320460BF0B2F8B4
:102A600094F8180110F062FC002384F84031AFE7BD
:102A7000F4213020FEF78EF8F8213020FEF78AF896
:102A8000C4F84C51E0E701236EE7D7213020FEF770
:102A900081F840F292613020FEF77CF840F251213B
:102AA0003020FEF777F840F296613020FEF772F89A
:102AB0002DE9F04F04468BB00020174694F87DB006
:102AC00002930E46069015F0ACF894F801220B2AFA
:102AD00000F2C183734B33F8125094F89F20039295
:102AE000284487F0010285B2049227B3B4F890928B
:102AF000B4F898A0A6EB09090FFA89F9A6EB0A0A1F
:102B0000B9F1000F0FFA8AFA04F51878C0F2508272
:102B10006549029A097801F0FF07002940F05882C0
:102B200094F84432032B00F2AD83DFE813F0BB01CD
:102B30008101C1003A0094F84422032AD6D1039AB5
:102B40000E2AD3D1B4F8D422B242CFD1B4F81C1299
:102B5000B4F892220A44C4F84022D4F84C22C4F8B3
:102B60003822E269C4F83C2220460CF075FAD4F809
:102B7000DC22E169914205D004F1280017F08BFABC
:102B8000D4F8DC22E261D4F8D822E263B4F8D62289
:102B9000A4F84020D4F8E0226262022284F84422A1
:102BA000A4E7E169029B01FB09F0002B00F082829F
:102BB000B4F81C32002B40F07D8284F85B32D4F8EC
:102BC0004C5294F89E1005FB19092629CDF818904F
:102BD00000F0BB8294F89F10262900F0B682B2B3B1
:102BE000ABBBD4E9A0C2D4E99E01604571EB0202FF
:102BF00080F0438394F87D00C21E012A40F2F882DF
:102C00000EF060F9294DD4F8801200F52340A13070
:102C1000A5FB003ED4E99E2394F87D008439A0F101
:102C2000030C8A1A9144BCF1010FA9EB9E1940F2E2
:102C30001E830EF047F900F2E732A5FB0232B4F82A
:102C40001C32D4F84C5292094A44103A06929A44E3
:102C5000ABF1030305FB0AFADBB20AF1300A012BE0
:102C60004FEA4A0A40F2B48258460EF02BF90F4B55
:102C700000F52340A130A3FB00304FEA90195846DD
:102C80000EF018F90AF174029144074AE16909EB60
:102C90000003536041F64B52914240F29C820698E9
:102CA0006EE000BFB8910400602A0020D34D62108E
:102CB000E36BD4F83C02DFF8EC931844294617F094
:102CC00082FA2946C4F84802E06917F07CFAE26902
:102CD00094F87D5041F64B539A4298BF0230C4F8A5
:102CE0004C0228460EF0EEF8033D00F55F40012D42
:102CF00000F14100A9FB003094BF2821002101EB25
:102D000090118031204616F0C3F8B4F81C32002B25
:102D100000F0D881D4F83C32E26BD4F8480294F841
:102D20007D5013441B1AE91E0693C9B2D4F83832F9
:102D3000D4F84022B4F840B002FB030A0AF1300A8A
:102D400001294FEA4A0A0BF1740B40F2F881284638
:102D50000EF0B8F8D34B00F52340A130A3FB0030B0
:102D60004FEA901928460EF0A5F8DA44CE4AE169F8
:102D7000CA440AEB000353600698012284F84422F7
:102D8000D4F84C526FF4AD724D1B1544C01B9D42DC
:102D9000D4F88872069028BF1D46D4F88C32C4F847
:102DA0001852381843F10003C4F874320023C4F8F1
:102DB000700284F8603204F1440015F0C7FFD4E9D2
:102DC0009C232844C4E9A223C4F86402A4F89062B6
:102DD0000BF08CFB20B1D4F864321E33C4F864329B
:102DE000B4F80812039A8E1B002336B29E4284F870
:102DF0006832C4BF022384F868320E2A029A00F0B7
:102E0000B081002A40F0B08194F84432002B40F0A9
:102E1000CC8194F85C02414610F0A8FB002800F039
:102E20001C82049B84F8583200200BB0BDE8F08F60
:102E3000D4F84C02E269D4F84832D4F84012B4F81D
:102E40001C5294F87DB0121A09FB02F20692D4F8D3
:102E50003822B4F840903033AA4402FB0135C9430C
:102E60008A44ABF1030300FB0A55012B4FEA4505E9
:102E700009F1740940F2608158460EF023F8894B3D
:102E800000F52340A130A3FB00304FEA901A5846CA
:102E90000EF010F8A944844AD14409EB00035360B2
:102EA000069883E094F87D1094F81602DFF8F4A1F8
:102EB00015F0E2F98146E06B2946484417F083F9A2
:102EC0002946C4F84802E06917F07DF9E26941F645
:102ED0004B539A4298BF0230C4F84C0207A908A885
:102EE0000DF076FC079B0093D4E9A201DDE90823ED
:102EF00011F072FA94F87D300593054618460DF0EE
:102F0000E1FF059B00F55F40033B012B00F1410011
:102F100094BF28210021AAFB003001EB90118031E1
:102F2000204615F0B5FFD4F89432E26B94F87D009A
:102F3000069305920DF0C6FF4AF2A13B5844AAFB46
:102F40000031069B059AD4F84802943B13441B1A9F
:102F50004B445B1B94F87D20B4F84090A3EB911395
:102F60000693D31E00F13005012B4FEA450509F108
:102F7000960940F2E780104605920DF0A3FF5844F1
:102F8000AAFB003A059A4FEA9A1A10460DF092FFF2
:102F9000A944454AD14409EB000353600698D4F88C
:102FA0009422821AB2F5917FC0F05C81E169E7E674
:102FB000D4E99E01C4E9A2013B490978002284F8C2
:102FC0005B22D146012201F0FF0700293FF4A8ADA2
:102FD000059217F0FEF8059A002869D0B4F830126F
:102FE000012965D994F84412022961D094F85A1243
:102FF00000295DD1E06941F64B57B84240F20481A7
:1030000094F801120B2900F22681284B33F8115055
:1030100094F8443205F5C865012BADB240F0F88054
:1030200094F8A230032B40F00981D4F83C02E76BFE
:1030300007442946059217F0C6F803463846D4F8E7
:103040003872C4F83832DB1BD4F84072294603FBCF
:1030500007F717F0B8F8D4F84832C4F84802C01A95
:1030600007442946E06917F0AEF8E369059A41F68E
:103070004B518B42B4F81C32D4F8401253446FEADF
:103080000101A3EB09030B44D4F84C1298BF0230A2
:10309000C4F84C02401A00FB0377012384F85A322B
:1030A0003EE500BFD34D6210602A0020B8910400B5
:1030B000002735E594F85B32002B00F08680744BD6
:1030C0005B685DE6029B002B3FF424AED4F83C32F3
:1030D000E56B94F87D001D440DF0F4FE00F52340EF
:1030E000A130A9FB00304FEA901BD4F84802D4F875
:1030F0008022A5F1940A94F87D50AAEB000A92442C
:10310000E91ED4E99E23C9B20129AAEB020A78D9A3
:1031100028460DF0D7FE94F87D5000F2E730A9FB69
:103120000039E91ED4F848024FEA9919C9B2AAEB4E
:103130000B024A440692F9E54FF0650AA7E64FF004
:1031400065090FE64FF0650A1FE7B4F8D412711A4B
:1031500009043FF544AD94F8D712002918BF8B46F7
:103160003DE5002A3FF455AEB4F83022D2B1B4F8B0
:10317000320294F8341200FB01118A4200F101007E
:103180007FF747AE002B3FF444AE002384F868324B
:10319000A4F8320208F04AF800F00700013084F881
:1031A000340236E6A4F8322233E6E169D4F84C3230
:1031B0004046C91A15F007F880B200283FF429AE3E
:1031C000149B1BB3188001202FE6B4F81C32F6E4E0
:1031D0004FF0650953E5084606AB51462D4A15F0F8
:1031E00068F82B4B84F85B025B680698E169C7E5D9
:1031F000D4E99E01ACF1E90CACEB000C3C22E144BB
:1032000022E54FF03C0992E70F4689E401200CE6E5
:103210002946059216F0D7FFE369059ABB42B4F838
:103220001C72D4F84C3298BF02305744A7EB090700
:10323000C4F84C02C01A00FB07F72EE794F87D1083
:1032400094F81602E76B059215F016F8059A0744F4
:10325000D4F83C02EDE6FFF72DFB40F27B51302025
:10326000FDF798FC40F2C6413020FDF793FCB4F81E
:103270001C32D4F84C523C22E6E440F21A51302081
:10328000FDF788FC40F232513020FDF783FC00BF8F
:10329000602A0020642A0020F0B585B0002800F0E4
:1032A00015810446072900F20081DFE811F0920041
:1032B000080008007B00FE0080008800FA0017F07C
:1032C000F0F8D4E99E23801A61EB0301012871F123
:1032D0000003C0F20D816FF00102002382428B4196
:1032E000C0F20181E3690BB1B0FBF3F394F89F20C6
:1032F0000E2A00F0CF80B4F89810B4F856220B4490
:103300009BB2D11A0D0454BF531C01339BB2A4F8D5
:10331000563294F85932B4F8561223B9B4F80C3234
:103320008B4200F0C680B4F8D400B4F89830B4F8FA
:103330009222724F0344B4F8D200013B01321B1AAF
:10334000A4F892229EB202AD3B6853B1013989B212
:10335000002220469847B4F85612084481B2A4F8D7
:103360005612731A18046ED4002300951A4620468C
:10337000FFF79EFB00284AD1D4F884303BB3B4F861
:10338000CE20B4F856329B1A1BB2002B1FDDB4F8C6
:1033900088100B44013BB3FBF1F313FB0123A4F8AA
:1033A000CE3014E005B0BDE8F0400DF01BBA0120AE
:1033B0000EF022FD05B0BDE8F040FFF70BBA90F823
:1033C0004432042B40F08B80002380F8443205B057
:1033D000F0BD90F8583253B3B0F85622B0F8983098
:1033E0009A426BD0D31AA0F80E32A0F89820D4E9F4
:1033F0009C232046C4E99E230BF01CFD94F8133255
:10340000002BE4D005B0BDE8F04016F0BFBD0128A8
:1034100060D1B4F85612B4F80832CA1A12042FD484
:10342000BDF80830194489B2A4F856128CE7B0F8F8
:103430005432B0F89810B0F85422A0F898205B1AD3
:10344000A0F80E32D3E794F8A2200394002A0CBF10
:103450003E220822012384F8C12028468DF8083036
:1034600008F0D4F9204616F093FD002384F8443286
:1034700094F85C020FF05AFF202384F85C32A6E730
:10348000BDF80820114489B2721A12F4004F18BF17
:103490001946C9E7B4F85612013189B2A4F8561298
:1034A00041E7CB213020FDF775FBCF213020FDF720
:1034B00071FB013189B2A4F8561234E7B0F80C322E
:1034C000A0F898309B1AA0F80E3290E7A621302081
:1034D000FDF760FB40F254613020FDF75BFBC52136
:1034E0003020FDF757FB40F207613020FDF752FB1B
:1034F00040F206613020FDF74DFB00BF2C05002097
:103500002DE9F043D0F81C310026D0E9568983B06C
:1035100080F8206105460F4683F8162280F8406146
:103520000121D0F81C0107F041FAD5F81C41C4E98B
:103530009E8995F8183184F85C32C4E9A289C4F8F0
:10354000947284F84462A4F890623346009632463E
:1035500031462046FFF7ACFAD0B9012384F8443253
:10356000C4F84002C4F83802A4F85602A4F8540281
:1035700084F85902B4F89830A4F89202013BA4F8F8
:103580009830FCF7BDFD03B0BDE8F0430FF05ABD25
:1035900040F2F3113020FDF7FDFA00BFD0F81C0116
:1035A000704700BF2DE9F04385B000230322CDE929
:1035B0000033FF268DF806206846FDF7F1FF04462C
:1035C00020BB009D95F84031002BF5D085F868614F
:1035D0000121284616F026FB95F84031002BEBD050
:1035E00095F8180110F024FA95F8180110F0B2FDC2
:1035F00095F818010FF09AFE00283CD085F840415C
:103600006846FDF7CDFF04460028DAD0DFF87C805D
:10361000012388F80830002502264FF6FF771AE0CC
:10362000029BE3B193F85C22202A18D01888B84294
:103630001BD00221FDF77AFF814608B390F85C02A7
:1036400010F088FD99F85C0289F844420FF06EFE94
:10365000202389F85C32CDE902558DF80E6002A86E
:10366000FDF79EFF04460028DAD0002388F80830D2
:1036700005B0BDE8F08340F2DF113020FDF78AFA93
:1036800040F22B113020FDF785FA00BF602A0020A0
:10369000054B0022012142F210705A7258811970B4
:1036A0001A72FFF77FBF00BF602A00202DE9F843A0
:1036B00090F84031002B75D10446884601465548A4
:1036C000154603F0FF070FF005FE2028064669D0D7
:1036D0005822394604F58C7011F0AEFB84F818615D
:1036E000C4F81C81FF2384F84031B8F1000F06D0E4
:1036F00007F0B4FD00F00700013088F8340202231F
:103700004FF00008A4F8503184F8488116F067FDA6
:103710009E3086B2204616F04FFA002846D014F0AC
:1037200080FA00F5CD6081B2284616F04CFD2844A1
:10373000C4F84C0116F0B5FE301841F100014FF00D
:103740000109C4F85801A4F82680C4F85C1184F873
:103750002091204616F046FA002845D049462046DA
:1037600016F09DF9A5F2D7452D1AC4F824514FF053
:10377000FF326FF00043C4E9582394F8180104F5B0
:10378000A4710FF0F3FE00283FD0D4E95623204661
:10379000C4E94C23C4E94E23002116F043FA38460D
:1037A000BDE8F8830C273846BDE8F883014620467B
:1037B00016F075F9DFF86080DB30C4F84C01B8F81A
:1037C0000A0008B1E08CB8B9064416F06AFE361853
:1037D00041F10001C4E95661002DC8D0AE1941F194
:1037E0000001C4E95861C8E7484616F0F3FADB3D2A
:1037F0002D1AC4F82451BAE707F030FDB8F80A30A2
:10380000B0FBF3F202FB1300DEE740F2C1113020FF
:10381000FDF7C0F9C1280000602A002090F840316F
:103820000BB90020704710B50446FF2380F86831BB
:10383000012116F0F7F994F840310BB9002010BDC2
:1038400094F8180110F0F4F894F8180110F082FCC4
:1038500094F818010FF06AFD20B1002384F840317C
:10386000002010BD40F2DF113020FDF793F900BFBA
:10387000014B5872704700BF602A002090F8682101
:1038800082B910B502F0FF0490F8202112B901228C
:10389000104610BDD0E949319942F9D90AF092F9A0
:1038A0002246F5E700221046704700BF10B50446D7
:1038B0000CF00EFA074BDA68824208D3E16941F650
:1038C0004B52914203D9187A80F0010010BD0020BC
:1038D00010BD00BF602A002008B540F2FF1115F0AE
:1038E000DFFAB0F5296F28BF4FF4296080B208BD18
:1038F00090F81332002B75D1F0B503F0FF0590F866
:103900004432032B85B0044601D005B0F0BD16F05B
:10391000C8FDD4E99E23801A61EB0301012871F1EF
:103920000003F2DB6FF00103834275EB01035CDB04
:10393000E369B4F89820002B55D0B0FBF3F080B2C7
:10394000531C184480B2A4F85402B4F85422B4F8BA
:103950000C329B1A1BB2002BD7DD94F85C0210F0DE
:1039600067F80028D1D0FF2384F85932B4F8985072
:10397000B4F8D420B4F8D230214F1544013DED1AEB
:103980003B68ADB20DF10E066BB1B4F854120139BB
:1039900089B2002220469847B4F8543210FA83F3D3
:1039A0009BB2A4F85432B4F85432EB1A1B04ACD4D2
:1039B000B4F85412009689B2002301222046FFF782
:1039C00077F80028A1D0012814D1B4F85432BDF8FA
:1039D0000E2012FA83F39BB2A4F854323B68002BFA
:1039E000D3D1E0E770471846AAE740F2AF51302044
:1039F000FDF7D0F840F2F6513020FDF7CBF800BFCC
:103A00002C0500202DE9F043044685B0062900F27C
:103A10000181DFE801F0042512222B327700D0E982
:103A20009E23D0E9A00182428B41C0F094807C4B60
:103A30001B7A03F0FF02002B7ED0042384F844326B
:103A4000FCF75EFB0FF0FEFAB4F89820A4F85622BB
:103A50000023A4F8923284F8593205B0BDE8F0830F
:103A6000032380F8443205B0BDE8F0830CF056F92A
:103A7000C4E9A00105B0BDE8F08390F87D30DFF81F
:103A8000A081D0F84C62C569033B40F26D1040F252
:103A90004512012B98BF024698F80930B5428CBFF9
:103AA000AE1B00261BB9636C9E4228BF1E4604F164
:103AB00044000392D4F8187215F048F90744022024
:103AC00010F0CCF9F61B26EAE676864228BF0646B9
:103AD0000221304610F016FA039A00B937443946ED
:103AE000204615F0C2F9E269D4F81832C8F80C0083
:103AF000D01810F063F90028AFD140F279313020AE
:103B0000FDF748F890F87D5028460DF0DBF9033DAD
:103B1000444900F55F40012D00F14100A1FB003058
:103B200094BF2821002101EB90118031204605B07F
:103B3000BDE8F04315F0ACB9B4F80C1200920123C3
:103B40002046FEF7B5FF00283FF47AAF40F2CA6185
:103B50003020FDF71FF894F85A32002B3FF467AF7E
:103B600094F84432032B7FF462AF94F87D8014F014
:103B700058F894F801320B2B4AD82B4AD4F88062BB
:103B800032F81330D4F81892C51803F5C8639FB201
:103B9000D4E99E234046B61A0DF08CF9A8F1030231
:103BA000012AADB2A9EB000930D940460DF08AF9DF
:103BB0001C4B00F52342A132A3FB02239B09A9EB76
:103BC0000303A3F174025208D43B9D3205FB03F3B7
:103BD000B3FBF7F36033A2EB53018E424FEA53037A
:103BE00002D313449E4201D916F0F5FAE069294642
:103BF00016F0E9FAE26941F64B539A4298BF023057
:103C00000023C4F84C0284F85A3210E76523D6E743
:103C1000FEF750FE40F265713020FCF7BBFF00BF9D
:103C2000602A0020D34D6210B8910400012A70B5BB
:103C3000064609D0022A14460D461ED04AB140F26B
:103C40008F713020FCF7A6FF0CF042F8C6F8940202
:103C500070BD0CF03DF8224601462846FFF750FCA7
:103C60000F4995F8180132460EF0B6F80028EFD14A
:103C70004FF4EF613020FCF78DFFD0F89412012251
:103C80002846FFF73DFC064995F8180132460EF02C
:103C9000A3F80028DCD140F289713020FCF77AFFCC
:103CA00099320000F8B5044651B101295BD10023D7
:103CB00080F82031FCF724FABDE8F8400FF0C2B9D3
:103CC000C58C002D47D12046D4E94C7615F036FF3F
:103CD000401941F10001C01946EB01010022022305
:103CE000C4E95601C4E94C0184F84821A4F85031D4
:103CF00094F8683103F0FF01002BDBD1D4E95802BE
:103D00006FF000439A4208BFB0F1FF3F0CD194F826
:103D1000180104F5A4710FF029FC0028CAD140F263
:103D2000E9613020FCF736FF2046D4E9565615F0FD
:103D3000B6FED4F86031D4F864215B1B00F1DB00DF
:103D400062EB06021B1A62F10002002ADFDA20464B
:103D500009F038FFAEE707F069FAE58CB0FBF5F340
:103D600003FB1505AFE740F29F713020FCF712FF0F
:103D700090F84001003818BF01207047014B58816E
:103D8000704700BF602A002008B540F2B7213220FA
:103D9000FCF700FF10B582B090F8023173B903F060
:103DA000FF02ADF804209DF804209DF805300020A6
:103DB00062F3070063F30F2002B010BD0C463638E3
:103DC00003F008FD182204232270ADF80430EAE75E
:103DD000044B1B680022A3F8BB2083F8BD2083F8A6
:103DE00090207047702A002008B506F0ABFE034B08
:103DF00018700CF00FFB032008BD00BFD00400209A
:103E00002DE9F041054617461E46A1B1AB681BB12E
:103E10002FB13846BDE8F0810120BDE8F081002EC9
:103E2000F7D01849AA7C0968BDE8F04191F8410033
:103E3000423114F059B9DFF84C80D8F8001091F8ED
:103E40005A2091F8A40001F15B039E3114F04CF963
:103E5000D8F8003093F89120082A03D093F84E1038
:103E6000914207D093F85630012BCFD033B90028B8
:103E7000CCD1D2E793F85630012BC7D90020BDE84A
:103E8000F08100BF702A002038B5124C20688C30B9
:103E900002F026FE256802F0C5FD2368C5F88C00F7
:103EA000D3F88C0060B102F0EDFD70B10CF076FB40
:103EB00000200CF0E1FB2368042283F8902038BD39
:103EC00040F2EF413220FCF765FE40F2F141322032
:103ED000FCF760FE702A002008B506F033FE0549A5
:103EE000054B024608681A7001218C3002F05AFE18
:103EF000012008BD702A0020D004002070B53F4C7E
:103F0000236893F89020032A064635D093F8902032
:103F1000042A31D093F854309B0733D16568002DC3
:103F200052D0236893F85420002A43D07EB3284609
:103F300014F0EBFC18B9284614F002FD30B32368E6
:103F400093F89020022A4ED993F89020082A4FD84F
:103F500093F89030A26803F180431269033B28462E
:103F600052F8233098470C2829D8A368DB68BDE8AD
:103F7000704053F820301847D3F88C0002F082FDCF
:103F80000546CCE702F094FD0546C8E7236893F8A0
:103F90009020022A1DD993F89020082A1ED893F861
:103FA0009030A26803F180435269033B52F82330FA
:103FB0009847D8E741F2BB313220FCF7EBFD41F2E4
:103FC000CE313220FCF7E6FD41F2B5313220FCF76C
:103FD000E1FD41F29B313220FCF7DCFD41F29C31E6
:103FE0003220FCF7D7FD41F23B313220FCF7D2FD05
:103FF00041F23C313220FCF7CDFD00BF702A002099
:1040000038B5144C236893F854309B0719D1656870
:10401000DDB12368FF2093F8BA100BF0A1FE28460B
:104020000CF0BCFA236893F8BA30033B012B94BF21
:10403000282000200CF020FB2368072283F8902022
:1040400038BD02F035FD0546E2E740F21651322058
:10405000FCF7A0FD702A002010B5064C2368022250
:1040600083F8902002F060FD2068BDE8104004F065
:1040700067BA00BF702A002008B54FF46271322081
:10408000FCF788FD30B50478264D8DB004F00F04A0
:1040900002A9224603F0AAF806F054FD042C287069
:1040A00002D003200DB030BD1F4A039B146893F863
:1040B00000C094F89E108C45F3D193F801C094F899
:1040C0009F108C45EDD193F802C094F8A0108C4558
:1040D000E7D193F803C094F8A1108C45E1D193F88F
:1040E00004C094F8A2108C45DBD1597994F8A33020
:1040F0009942D6D19DF8191094F8A4309942D0D1A4
:104100007F280CD00090137C127B04F18C0002A954
:104110007F242C7002F0D4FF03200DB030BDFFF7D8
:10412000ABFF00BFD0040020702A00202DE9F04F23
:10413000044687B0062905D8DFE801F0D0502E04E8
:1041400004040A000CF066F9032007B0BDE8F08F04
:10415000B14D286890F89230002B00F0E98090F87B
:104160005430990740F13A81AC4A92F900307F2BE4
:1041700000F0F38102932B7B01932146FF237F24E0
:10418000009300F1420314708C30062202F0ECFE22
:1041900000232B740920D8E70CF03CF99E4B1868DB
:1041A00090F854209507CFD090F89220002ACBD0D9
:1041B0009A4D95F900207F2A00F0CF8102921A7B58
:1041C0002146FF237F24CDE9003200F14203022281
:1041D0008C302C7002F0C8FE0320B6E78E4D827C36
:1041E000296891F8483091F892A091F89390012AAB
:1041F00083F0010B00F0A280002691F8542012F009
:10420000040000F0A58091F84D70002F00F0A08010
:1042100091F84E70082F40F09E8091F841704FF059
:104220000008BC4678B3626891F85B0092F800E041
:10423000864500F039810023059391F89120082AE2
:1042400006D0059B91F84E00904208BF01230593CC
:10425000B8F1000F40F0DE80BBF1000F40F01D818F
:104260004046B9F1000F09D02B6893F85630012B66
:1042700002D01BB9059B0BB1002844D10CF0CAF841
:104280002B6893F8542093073FF45EAF0CF0C2F80C
:10429000BAF1000F3FF458AF2968A36891F84100C4
:1042A000A27C423113F020FF18B9B8F1000F00F0E2
:1042B00035815A4E96F900307F2B00F04E810293E3
:1042C0002B7B2868CDE9007321467F2400F142034F
:1042D00001228C30347002F047FE35E74E4D2868DD
:1042E00090F854305F071BD590F89330002B45D0E1
:1042F000636890F85B201978914200F0A98090F8EB
:104300005630012B01D10A201FE790F84E30082BC0
:1043100003D090F891209A42F5D00CF07BF82868F1
:1043200090F8923073BB90F89330002B7FF40CAF71
:104330000CF070F8032007B0BDE8F08F8268567962
:1043400006F0C006A6F14006B6FA86F6760954E7EE
:1043500091F891705EE7384606F06AF9002818BFB8
:104360008346002E40F0CA80296891F8417091F888
:104370005420B046BC4602F0040053E790F8923057
:10438000002BD5D090F854309E0749D4D8077FF53C
:10439000DBAE590700F1DA80204B93F900207F2A29
:1043A00000F0DB8002922A7B0192FF2200927F20A4
:1043B00018702868214600F1420300228C3002F078
:1043C000D3FD03202B6893F89320002A7FF4BDAE21
:1043D00093F89230002B7FF4B8AEA9E7DA07A7D59F
:1043E0005B0700F1B0800D4A92F900307F2B00F09E
:1043F000B480029328682B7B01937F26FF230093D0
:10440000214600F1420316708C30062202F0ACFD0A
:1044100003209AE6012024E7702A0020D00400201F
:104420004F4A92F900307F2B00F0978002932B7B4C
:1044300001932146FF237F24009300F1420314706F
:104440008C30002202F090FD01232B740920B9E783
:10445000597890F85C2091427FF451AF997890F8A8
:104460005D2091427FF44BAFD97890F85E20914265
:104470007FF445AF197990F85F2091427FF43FAF08
:104480005A7990F860309A427FF439AF627C90F8A4
:104490005A309A427FF433AF35E7A368A27C4231A9
:1044A000604613F021FEDCE692F801E091F85C0032
:1044B00086457FF4C0AE92F802E091F85D00864533
:1044C0007FF4B9AE92F803E091F85E0086457FF480
:1044D000B2AE92F804E091F85F0086457FF4ABAE8F
:1044E000507991F8602090427FF4A5AE637C91F8FA
:1044F0005A209A1A5342534105939EE6A1683846C2
:1045000006F0D0F92968804691F841C091F854200E
:10451000F8B14CF0020702F0040083E6286890F836
:104520005530023B012B3FF60FAE002E3FF40CAE90
:104530000B4E96F900307F2B0FD002932A7BFE237F
:10454000CDE90032C0E60BF065FF4CE70BF062FFEF
:1045500022E7674602F0040064E6FFF78DFD00BF26
:10456000D004002010B5104A136893F89010022967
:104570000FD993F89010082910D893F890309268CA
:1045800003F180439268033BBDE8104052F82330AA
:10459000184741F2BB413220FCF7FCFA41F2BC4122
:1045A0003220FCF7F7FA00BF702A002038B51C4D06
:1045B0002B6893F89020022A2CD8027C83F898204C
:1045C000C16819671A44044692F8BE2083F8BA20DD
:1045D00042685A67037A022B0ED00BF053FC0CF0A2
:1045E00099F80AF061FE0F480BF0C2FF0E480BF07D
:1045F000B9FF0E480BF054FD637C03B938BD286841
:10460000643013F067FD2B68DB6E002BF6D00122BF
:104610001A6038BD40F6E2013220FCF7BBFA00BF59
:10462000702A0020D405002055555500D6BE898E2D
:1046300030B5194C94F900307F2B85B029D0174D37
:104640000A467F2121702C6894F89010032916D017
:1046500094F8901006290CBF03210121CDE9023105
:104660002B7B019394F8BA300093014604F1420386
:1046700004F18C0002F014FB18B905B030BD002124
:10468000ECE7286801218C3005B0BDE8304002F02D
:1046900051BAFFF7F1FC00BFD0040020702A0020BF
:1046A00038B505460C4605F091FD420704D4A378C1
:1046B00003F0E003402B0DD005F088FD830704D400
:1046C000A37803F0E003202B04D0237803F03F030A
:1046D000242B01D9002038BD0BF0DAFA94F9003010
:1046E00094F802C06278002B0CF01F03ACBF1E21AF
:1046F0004FF4967142EA032301FB03F31A1AB2F551
:10470000877FE7D39842E5D8054A23881068A0F848
:10471000BB3080F8BDC02946BDE8384003F0E0B8A2
:10472000702A002070B5344E346894F8923084B00A
:1047300053B394F8813005460A4633B90378002B09
:104740000CBF0123022384F8813094F89030062BAB
:10475000D9B23BD0072914BF01200220274B93F97F
:1047600000107F2946D0CDE90210317B019194F8E9
:10477000BA1000917F21197004F18C0004F14203FA
:10478000294602F08DFA18B90024204604B070BD05
:104790006C7814F010041BD0A9690220FFF780FF89
:1047A0000446E8B13268002382F882306B69EBB1CD
:1047B0005978C1F3031182F8831059781B7801F0FE
:1047C0000F0143EA0123A2F88430DEE70320C5E7A6
:1047D000306801218C3002F0ADF9204604B070BD84
:1047E000306801218C3002F0DDF9CEE7FF2382F83A
:1047F0008330CAE7FFF740FC702A0020D004002075
:1048000010B504468AB006F09DF92378184A03F0E3
:104810000F03072B107002D001200AB010BD6946AB
:10482000204602F07DFD684602F06AFE9DF80030E9
:10483000002BF1D19DF80130DB07EDD50D4C01992E
:1048400023689DF8110093F8A4209E3313F04CFCCC
:104850000028E1D0206801219A3013F0B1F9FF213E
:104860006846FFF75FFF0028D6D00220D5E700BFDB
:10487000D0040020702A00202DE9F04FDFF8F0A0CE
:10488000847C9146DAF8002092F84860012C83B0CD
:10489000054688461F4686F001063FD000249AF858
:1048A0000D30A346F3B192F854305B0722D46B6805
:1048B000002B3AD092F89130082B23D01846019360
:1048C00005F0B6FE002818BF0646BBF1000F23D046
:1048D0009AF80F20019B8AB313F045FC002203468F
:1048E0008AF80F2089F8003088F800403E7003B045
:1048F000BDE8F08F92F84D30002BD8D092F84E30B2
:10490000082BDBD1BBF1000F06D09AF80EB0BBF13B
:10491000000F19D00023E5E75B46E3E783685B7986
:1049200003F0C003402BB9D1B9E7D2F88C0002F0F4
:104930003FFC0028E6D0DAF80020BBE71846A9685B
:1049400005F0B0FF0346CDE7A868594605F0D2FE52
:1049500003468AF80D000028C4D0019013F0F9FB3B
:104960000828D9D0DAF80020019B82F89100B9E735
:10497000702A002008B5064B186801218C3002F01F
:10498000D9F806F0DFF8034B02461A70012008BD83
:10499000702A0020D00400202DE9F0416A4C6368A1
:1049A000D4F80080002205461A8018460F460BF006
:1049B000F5FD032D38D0052D4BD0606808F19E0120
:1049C00013F080FD98F8A410606813F08FFD236841
:1049D00093F8482093F8417003F142065AB193F8D6
:1049E0005420520719D493F8910005F095FF002840
:1049F0001CBF064601276068314613F05CFD606805
:104A0000394613F066FD514BD3F80431002B40F0CA
:104A10009680052D12D0BDE8F08193F84D20002A34
:104A2000E1D093F84E00E0E76068037823F00F03CD
:104A300043F0030303700C234370BFE7236831681E
:104A40001A6DC2F80A10B188D1811B6D5F72BDE882
:104A5000F081D4E90006317821F02F0141EA4711B5
:104A600041F00501222331707370036D1B6AC6F893
:104A70000F30026D936BF3741F0A1B0C377573753F
:104A8000D369B2F8407041F64B518B42D16B3BD9A0
:104A9000DFF8BCC0ACFB01E1890AACFB07C7BF0A69
:104AA000F175C1F30721B77531762949A1FB0313CD
:104AB000C3F38F2373761B0AB376938CF3761B0AAA
:104AC0003377D38C73771B0AB377D2F8A730C6F845
:104AD0001F3092F8AB3086F82330036D96F824200F
:104AE00093F8B23022F01F0203F01F03134386F83D
:104AF000243005F091FB96F8243003F01F0343EABD
:104B0000401086F8240058E7DFF84CC0ACFB01E108
:104B10004909ACFB07C77F09F175C1F30721B775D8
:104B20003176A3F57A7741F270718F42BDD8094989
:104B3000A1FB03139B0903F550639BB2BAE740F254
:104B40002F613220FCF726F8702A00200010004068
:104B50005917B7D1D34D62101F85EB5110B50A4CD0
:104B600005F0F0FF094A637B10701BB90BF052FC93
:104B7000032010BD0BF0CEFD0AF096FB00236373FB
:104B80000BF048FC032010BD702A0020D004002048
:104B900070B52E4C236893F8BD2005465F2A93F824
:104BA000BB009CBF51092A4A82B000F03F0094BF6D
:104BB000565C00260BF07EFA236893F958000BF040
:104BC00069FAF5B123683246196F01200BF0CAFB70
:104BD000236893F88230022B0CBF4020FF2031461F
:104BE0000BF0BEF8236893F8542092070FD193F886
:104BF000813065689BB1284602B0BDE870400BF07B
:104C0000CDBC3246732101200BF0ACFBE0E701F094
:104C10004FFF236893F881300546002BEBD1681DC8
:104C200005F096FD60730028E5D0033E012E94BF89
:104C30005520502001900AF019FB01980BF05EFD01
:104C4000284602B0BDE870400BF0A8BC702A0020D6
:104C5000D0910400F0B52E4C236893F8BD205F2A54
:104C60009EBF51092B4A575C1A6F85B0064688BF14
:104C70000027002A40D1586F0BF0CAFC256895F830
:104C800054309A0703D595F88220022A2BD05B076F
:104C900025D4D5F88C00D6B902F08AFA236803909F
:104CA000D3F88C0002F08AFA024605F186002568E6
:104CB000039995F8823095F8BA50009502F0C4FB3C
:104CC0002268002382F8BA70A37305B0F0BD02F029
:104CD00081FA014605F1860002F0ACFBF0E795F899
:104CE0008230012BD5D1FB1E012B0AD93946002079
:104CF0000BF02AFD2568CCE70120FFF749FF236868
:104D0000B9E795F85930012B14BF39460321EEE776
:104D1000702A0020D091040010B50E4C637B8BB933
:104D2000206800F1BB020023012180F89010A0F858
:104D3000BB308C30937001F0D3FE2068BDE810408A
:104D400003F078BD0BF0E6FC0AF0AEFA00236373C3
:104D5000E6E700BF702A00202DE9F047072986B05A
:104D60000E46044691464ED14068002800F09080DF
:104D7000637C012B00F0BF80DFF82083D8F800307F
:104D800093F89100082861D004AA0DF10F0105F0F5
:104D900099FC002800F075819DF80F0004A914F01B
:104DA000B4FB0746D8F8005095F8543013F00301CF
:104DB00040F0B28013F0040385F8921076D185F8A4
:104DC0009330B54B1B6833B149462046984785F868
:104DD0009400D8F80050636843B1627C85F8A42041
:104DE0001A68C5F89E209B88A5F8A23095F89430E3
:104DF0000120002B00F04A81A3680BB1072E3AD0A6
:104E000006B0BDE8F0874768002F00F09080437C33
:104E1000012BB1D17B7903F0C003402BACD1DFF87B
:104E20007C8298F80D30002B71D0D8F8005013F028
:104E300090F9D8F8003085F8910093F8910088F83F
:104E40000C000123082888F80E309DD16168607C31
:104E500014F05BFBD8F80020616807469132607C53
:104E600005F00EFC00289DD1D8F80050A5F892005E
:104E700085F89400C0E795F891100829C0D0002863
:104E8000BED0184605F054FC012388F80F30B7E770
:104E9000DFF80882002A4DD0D8F8005095F8543039
:104EA00013F0030740F09180394683E7062E95F80A
:104EB0004D3003D8002B82D13B4680E795F893A074
:104EC000082E6ED8B9F1000F00F0BE80BAF1000FC5
:104ED00067D06268002AEDD1D5F88C00019302F00A
:104EE00067F918B9019B002B00F0C7800127D8F89B
:104EF00000503B4663E7437903F0C003402B7FF447
:104F00003BAFDFF8988198F80D30002B4BD1D8F8E3
:104F1000003093F8910035E7062E95F84C1032D802
:104F200000297FF447AF3A463946174642E7DFF893
:104F30006C8137E7D8F8002092F8543013F0030161
:104F400018BF012113F0040382F8921005D02378D2
:104F5000A3F10103B3FA83F35B0982F8933092F86B
:104F60008030002B3FF44CAFD8F80030D86F503071
:104F700015F063F800287FF443AFD8F80030012221
:104F800083F894203CE7082E3AD9002213F004035A
:104F900085F892203FF413AF95F84D3095F893A023
:104FA0008EE700230BE7B9F1000F7FF43EAFD8F88E
:104FB000005095F8BA1001297FF439AF05F09AFB3B
:104FC00088F80D000028A2D02FE795F84C1095F82E
:104FD00092A00746BAF1000FD7D06268002A9FD18D
:104FE000D5F88C00019102F0E3F810B9019900297D
:104FF0003ED03A460127D8F8005095F8543093E750
:1050000095F892A0B9F1000FE4D16268002A87D127
:105010006278D00620D5012185F892105907C0D5B5
:1050200095F84D3095F893A00193D30612D4D5F896
:105030008C0002F0BDF8019B00283FF454AFBAF198
:10504000000F3FF450AF51E76268002A7FF432AF9F
:105050006278E9E70123B2E6D5F88C00019102F00D
:10506000A7F801990028C2D0BAF1000FBFD0C0E75D
:1050700005F000FB3A460746BDE705F0FBFA074698
:1050800035E740F6A2313220FBF784FDB5F89200F7
:10509000003818BF0120AFE630050020702A00203C
:1050A00010B5104C05F04EFD0F4A637B10708BB9A4
:1050B000206800F1BB020023012180F89010A0F8C5
:1050C000BB308C30937001F00BFD2068BDE81040C0
:1050D00003F0B0BB0BF01EFB0AF0E6F8002363738D
:1050E000E6E700BF702A0020D004002010B5104C65
:1050F000206801218C3001F055FD637B8BB920685D
:1051000000F1BB020023012180F89010A0F8BB3011
:105110008C30937001F0E4FC2068BDE8104003F08F
:1051200089BB0BF0F7FA0AF0BFF800236373E6E7D8
:10513000702A002010B5124C206801218C3001F03B
:1051400031FD05F0FFFC0F4A637B10708BB92068BE
:1051500000F1BB020023012180F89010A0F8BB30C1
:105160008C30937001F0BCFC2068BDE8104003F067
:1051700061BB0BF0CFFA0AF097F800236373E6E700
:10518000702A0020D004002010B5154C20680121A1
:105190008C3001F0CFFC05F0D5FC02462068114BA5
:1051A00000219A301A7012F00BFD637B8BB92068D6
:1051B00000F1BB020023012180F89010A0F8BB3061
:1051C0008C30937001F08CFC2068BDE8104003F037
:1051D00031BB0BF09FFA0AF067F800236373E6E730
:1051E000702A0020D004002038B5164C0521206814
:1051F00002F076FB50B12368012093F8BA100BF04F
:10520000A3FA23680B2283F8902038BD637B8BB907
:10521000206800F1BB0200230121A0F8BB3080F818
:1052200090108C30937001F05BFC2068BDE8384032
:1052300003F000BB05460BF06DFA0AF035F8657314
:10524000E6E700BF702A002070B5234C236893F86E
:10525000BD205F2A9EBF5109204A565C1A6F88BF45
:10526000002662BB586F0BF0D3F9256895F85430CF
:105270009A0703D595F88220022A17D05B0703D539
:1052800095F88230012B11D0D5F88C0001F0A2FFE7
:10529000014605F1860002F0CDF8236806220021C0
:1052A00083F8BA6083F89020A17370BDF31E012BC0
:1052B0000AD9314600200BF047FA2568E4E70120BF
:1052C000FFF766FC2368CDE795F85930012B14BF32
:1052D00031460321EEE700BF702A0020D091040080
:1052E00038B5174C00210320FFF756FB2068032137
:1052F00002F0F6FA40B1012108460BF025FA2368C6
:10530000092283F8902038BD637B8BB9206800F1B7
:10531000BB0200230121A0F8BB3080F890108C3034
:10532000937001F0DDFB2068BDE8384003F082BADD
:1053300005460BF0EFF909F0B7FF6573E6E700BF2C
:10534000702A002010B5B0B9A9B1204A136893F8AB
:105350009010082930D993F890100C2931D893F87F
:105360009030926803F180435268093BBDE81040D9
:1053700052F823301847154C206801218C3001F079
:1053800011FC637B8BB9206800F1BB020023012173
:1053900080F89010A0F8BB308C30937001F0A0FB27
:1053A0002068BDE8104003F045BA0BF0B3F909F0EE
:1053B0007BFF00236373E6E741F28B413220FBF76A
:1053C000E9FB41F28C413220FBF7E4FB702A00201C
:1053D00070B52B4C236893F8BD205F2A9EBF5109FE
:1053E000284A565C1A6F84B088BF0026002A3AD13A
:1053F000586F0BF00DF9256895F854309A0703D5CE
:1054000095F88220022A25D05B0703D595F88230D3
:10541000012B1FD0D5F88C0001F0CAFE2368039041
:10542000D3F88C0001F0CAFE024605F1860025681B
:10543000039995F8823095F8BA50009502F004F877
:1054400023680021052283F8BA60A17383F89020B5
:1054500004B070BDF31E012B0AD9314600200BF0B9
:1054600073F92568D6E70120FFF792FB2368BFE7B1
:1054700095F85930012B14BF31460321EEE700BFE8
:10548000702A0020D0910400F0B55E4C206883B0F3
:105490008C3001F025FB256801F0C4FA2368C5F8BB
:1054A0008C00D3F88C00002800F0A68001F0EAFA06
:1054B0000546002800F09B80236893F8B030002B4D
:1054C00059D1206890F8982090F89010024492F8F2
:1054D000BE7080F8BA7019B190F89020012A63D19B
:1054E00090F89920484B134418790AF0E3FD23689B
:1054F00093F89820134493F8BE60022E52D033D90B
:10550000F31E012B32D801F087FA31460AF028FC4D
:1055100028460BF043F8314601200AF0D9FD012F4F
:1055200038D0681D05F014F9607350B1033F012FA6
:1055300094BF55205020019009F098FE01980BF07F
:10554000DDF823680022082103202173E281227400
:1055500083F89110A3F8922083F8942083F8812097
:1055600083F8900003B0F0BD012ECCD040F2EB7177
:105570003220FBF70FFB236893F8542093F8B10017
:10558000196DC3F83C11024383F85420002283F8BC
:10559000B02096E7E81C05F0DBF860730028D0D057
:1055A0004020C8E70D20B0E7002102F099F908B1CA
:1055B000206895E7637B93B9206800F1BB02002364
:1055C000012180F89010A0F8BB308C30937001F06E
:1055D00087FA206803B0BDE8F04003F02BB90190D2
:1055E0000BF098F809F060FE01986073E4E740F270
:1055F0004E413220FBF7CEFA40F24C413220FBF70D
:10560000C9FA00BF702A0020D091040008B505F047
:1056100099FA044B18700AF0FDFEBDE80840FFF748
:1056200033BF00BFD004002010B50C4C05F08AFA3F
:105630000B4A637B10702BB90AF0ECFEBDE81040FA
:10564000FFF722BF0BF066F809F02EFE002363730C
:105650000AF0E0FEBDE81040FFF716BF702A0020F8
:10566000D004002038B50446FEF7A0FF237A032BB0
:1056700063D0012B6AD051D84E4C4F49226892F822
:10568000993092F84B000133A1FB035C0CF4FF75D9
:1056900005EB5C055B1B40FA03FC1CF0010FDDB25F
:1056A00016D10133A1FB035C2CF0010505EB5C0571
:1056B0005B1B40FA03FC1CF0010FDDB208D1013383
:1056C000A1FB035121F0010505EB51015B1ADDB28D
:1056D00082F8995092F958000AF0DCFC2368002205
:1056E00083F88120FFF7D0FE256895F84830A3B1F4
:1056F000D5E92A126FF000439A4208BFB1F1FF3F8B
:105700000BD014F0CEFED5E92A23904271EB0303AF
:1057100003D3012005F092F818BB38BD023B012BE2
:10572000FBD8244C236893F8810090B9FFF792FAD4
:105730002368052283F8902038BD1E4B1B68186F24
:1057400098BBFFF725FA237A012B94D1194C2268D4
:10575000C0E70120FFF77EFA2368062283F8902035
:1057600038BD256804F0A8FF044614F09AFE6301D2
:105770001B1B4FEAD46262F10002520242EAD3528A
:105780005B021B1942F1000C4FEA8C1E9A01D21ADF
:105790004EEA936E6EEB0C0C13194CF100021818C4
:1057A00042EB0101C5E92A0138BD40F6291132203A
:1057B000FBF7F0F9702A0020ABAAAAAA2DE9F04164
:1057C000A94E326892F8573086B05BB192F89230A9
:1057D000054663B12C78012C14D0022C00F0DF8038
:1057E000002C57D00324204606B0BDE8F08192F883
:1057F00093100029EED192F894100029F2D02C7861
:10580000012CEAD192F8BA30022B6B7800F0FC80C0
:1058100003F01803182BE5D192F85430580700F123
:10582000F980990719D0914991F900307F2B00F048
:1058300055810293337B01930023039392F8BA308E
:10584000009302F18C0002F142037F220A70FF22D2
:10585000294601F025FA0028C4D0A9690120FEF7E5
:105860001FFF0028BED03268012382F882306B69A6
:10587000002B00F0E98059780224C1F3031182F86B
:10588000831059781B7801F00F0143EA0123A2F835
:105890008430A8E792F854108F07A3D01BB992F870
:1058A0009430002B9ED06B7813F0100F14BF082299
:1058B0000122C3F3001732EA030393D1AA6800233D
:1058C0008DF815308DF816308DF81730002A00F05D
:1058D000C7800DF117030DF116010DF115022846D1
:1058E000FEF7CAFF31689DF8153091F84180002B12
:1058F00040F0E880AB68AA7C4231404612F0F4FBED
:1059000090B9336893F85530023B012B3FF66AAFEC
:105910009DF81630002B3FF465AF9DF81530002B35
:105920007FF460AF4FF0FE08002F00F0A1804F4BD6
:1059300093F900207F2A00F0D18030680292002481
:10594000327B0192039490F8BA1000917F21197074
:10595000424600F1420329468C3001F0A1F90028AB
:105960003FF440AFA9690120FEF79AFE00283FF4FA
:1059700039AF336883F882406A69002A00F0A98051
:105980005178C1F3031183F883105178127801F034
:105990000F0142EA01220224A3F8842023E792F8AF
:1059A00054309B073FF41EAF6B7803F01803182B9D
:1059B0007FF418AF2D4B93F900107F2900F08E80F3
:1059C0000291317B01910021039192F8BA1000916C
:1059D0007F21197002F18C0002F142032946FF2257
:1059E00001F05EF900283FF4FDAEA9690120FEF741
:1059F00057FE00283FF4F6AE326882F882406B69A9
:105A0000002B62D0597838E703F01903192B3FF4C3
:105A100003AFE7E669680023B1FA81F11A46490944
:105A20002846FEF7EDF900283FF4DCAEAB6932689A
:105A30009B7813F0E0030CD192F84930002B3FF42F
:105A4000D1AE92F85430ECE6FF2382F88330022482
:105A5000C9E6402BF5D192F84A30002BF1D1C1E6CE
:105A60004FF0FF0860E700BF702A0020D00400203C
:105A70001B4A92F900307F2B30D030687F211170A3
:105A800090F89020032A05D090F89020062A0CBFA9
:105A900003240124CDE90234337B019390F8BA301A
:105AA0000093424600F1420329468C3001F0F8F899
:105AB00000283FF497AE306801218C3001F03AF8AD
:105AC000032490E648F002082EE7FF2382F8833093
:105AD00089E6FF2283F88320022484E6FEF7CCFACD
